:020000040800F2
:1000000000000824252D0008192600081B260008DA
:100010001D2600081F2600082126000800000000F9
:10002000000000000000000000000000232600087F
:1000300025260008000000002726000829260008C1
:10004000792D0008792D0008792D0008792D0008F8
:10005000792D0008792D0008792D0008792D0008E8
:10006000792D0008792D0008792D00083126000827
:10007000792D0008792D0008792D0008792D0008C8
:10008000792D0008792D0008792D0008792D0008B8
:10009000792D0008792D0008792D0008792D0008A8
:1000A000792D0008792D0008792D0008792D000898
:1000B000792D0008792D000841260008792D0008C7
:1000C000792D0008792D0008792D0008792D000878
:1000D000792D0008792D0008792D0008792D000868
:1000E000792D0008792D000800000000792D000806
:1000F000792D0008792D0008792D0008792D000848
:10010000792D0008792D0008792D00085126000866
:10011000792D0008792D0008792D0008792D000827
:10012000792D0008792D0008792D0008792D000817
:10013000792D0008792D0008792D0008792D000807
:1001400000000000000000000000000000000000AF
:10015000792D0008792D0008792D0008792D0008E7
:10016000792D0008792D0008792D0008792D0008D7
:10017000792D0008792D0008792D00080000000075
:10018000792D0008792D0008792D0008792D0008B7
:10019000792D0008792D0008792D0008792D0008A7
:1001A000792D0008792D0008792D0008792D000897
:1001B000792D0008792D0008792D0008792D000887
:1001C000792D0008792D0008792D0008792D000877
:1001D000792D0008792D0008792D0008792D000867
:1001E000792D0008792D0008792D0008792D000857
:1001F000792D0008792D0008792D0008792D000847
:10020000792D0008792D0008792D0008792D000836
:10021000792D0008792D0008792D0008792D000826
:10022000792D0008792D0008792D000800000000C4
:10023000792D0008792D000800000000792D0008B4
:10024000792D0008792D0008792D0008792D0008F6
:10025000792D0008792D0008792D0008792D0008E6
:10026000792D0008792D0008792D0008792D0008D6
:10027000792D0008792D0008792D00080000000074
:10028000792D0008792D0008792D00080000000064
:0802900000000000792D0008B8
:1002C00010B5054C237833B9044B13B10448AFF390
:1002D00000800123237010BDC0090024000000002D
:1002E000CCDD000808B5034B1BB103490348AFF34D
:1002F000008008BD00000000C4090024CCDD000817
:1003000081F0004102E000BF83F0004330B54FEAC6
:1003100041044FEA430594EA050F08BF90EA020F33
:100320001FBF54EA000C55EA020C7FEA645C7FEAC6
:10033000655C00F0E2804FEA5454D4EB5555B8BFE9
:100340006D420CDD2C4480EA020281EA030382EA5A
:10035000000083EA010180EA020281EA0303362DEC
:1003600088BF30BD11F0004F4FEA01314FF4801CBF
:100370004CEA113102D0404261EB410113F0004FD1
:100380004FEA03334CEA133302D0524263EB430388
:1003900094EA050F00F0A780A4F10104D5F1200E26
:1003A0000DDB02FA0EFC22FA05F2801841F1000181
:1003B00003FA0EF2801843FA05F359410EE0A5F155
:1003C00020050EF1200E012A03FA0EFC28BF4CF086
:1003D000020C43FA05F3C01851EBE37101F000453C
:1003E00007D54FF0000EDCF1000C7EEB00006EEB49
:1003F0000101B1F5801F1BD3B1F5001F0CD34908D3
:100400005FEA30004FEA3C0C04F101044FEA445229
:1004100012F5800F80F09A80BCF1004F08BF5FEAB0
:10042000500C50F1000041EB045141EA050130BD90
:100430005FEA4C0C404141EB0101013C28BFB1F5A2
:10044000801FE9D291F0000F04BF01460020B1FAED
:1004500081F308BF2033A3F10B03B3F120020CDAC0
:100460000C3208DD02F1140CC2F10C0201FA0CF09E
:1004700021FA02F10CE002F11402D8BFC2F1200C03
:1004800001FA02F120FA0CFCDCBF41EA0C019040B9
:10049000E41AA2BF01EB0451294330BD6FEA040402
:1004A0001F3C1CDA0C340EDC04F11404C4F12002ED
:1004B00020FA04F001FA02F340EA030021FA04F3FF
:1004C00045EA030130BDC4F10C04C4F1200220FA56
:1004D00002F001FA04F340EA0300294630BD21FA94
:1004E00004F0294630BD94F0000F83F4801306BF5A
:1004F00081F480110134013D4EE77FEA645C18BF4E
:100500007FEA655C29D094EA050F08BF90EA020FE4
:1005100005D054EA000C04BF1946104630BD91EADC
:10052000030F1EBF0021002030BD5FEA545C05D1DF
:100530004000494128BF41F0004130BD14F580041E
:100540003CBF01F5801130BD01F0004545F0FE4192
:1005500041F470014FF0000030BD7FEA645C1ABFC7
:10056000194610467FEA655C1CBF0B46024650EAFE
:10057000013406BF52EA033591EA030F41F400212A
:1005800030BD00BF90F0000F04BF0021704730B5B0
:100590004FF4806404F132044FF000054FF0000185
:1005A00050E700BF90F0000F04BF0021704730B546
:1005B0004FF4806404F1320410F0004548BF40421B
:1005C0004FF000013EE700BF42004FEAE2014FEA70
:1005D00031014FEA02701FBF12F07F4393F07F4F4B
:1005E00081F06051704732F07F4208BF704793F04E
:1005F0007F4F04BF41F40021704730B54FF4607461
:1006000001F0004521F000411CE700BF50EA010263
:1006100008BF704730B54FF000050AE050EA01020C
:1006200008BF704730B511F0004502D5404261EB7C
:1006300041014FF4806404F132045FEA915C3FF4BD
:10064000D8AE4FF003025FEADC0C18BF03325FEA5A
:10065000DC0C18BF033202EBDC02C2F1200300FA0B
:1006600003FC20FA02F001FA03FE40EA0E0021FA30
:1006700002F11444BDE600BF70B54FF0FF0C4CF41E
:10068000E06C1CEA11541DBF1CEA135594EA0C0FD0
:1006900095EA0C0F00F0DEF82C4481EA030621EA0B
:1006A0004C5123EA4C5350EA013518BF52EA033546
:1006B00041F4801143F4801338D0A0FB02CE4FF0F8
:1006C0000005E1FB02E506F00042E0FB03E54FF028
:1006D0000006E1FB03569CF0000F18BF4EF0010E20
:1006E000A4F1FF04B6F5007F64F5407404D25FEA1C
:1006F0004E0E6D4146EB060642EAC62141EA5551CF
:100700004FEAC52040EA5E504FEACE2EB4F1FD0C10
:1007100088BFBCF5E06F1ED8BEF1004F08BF5FEA8E
:10072000500E50F1000041EB045170BD06F0004640
:1007300046EA010140EA020081EA0301B4EB5C04ED
:10074000C2BFD4EB0C0541EA045170BD41F48011E5
:100750004FF0000E013C00F3AB8014F1360FDEBF0A
:10076000002001F0004170BDC4F10004203C35DAE6
:100770000C341BDC04F11404C4F1200500FA05F369
:1007800020FA04F001FA05F240EA020001F000420A
:1007900021F0004110EBD37021FA04F642EB060180
:1007A0005EEA430E08BF20EAD37070BDC4F10C04AA
:1007B000C4F1200500FA04F320FA05F001FA04F26E
:1007C00040EA020001F0004110EBD37041F100015A
:1007D0005EEA430E08BF20EAD37070BDC4F1200565
:1007E00000FA05F24EEA020E20FA04F301FA05F2CD
:1007F00043EA020321FA04F001F0004121FA04F275
:1008000020EA020000EBD3705EEA430E08BF20EA44
:10081000D37070BD94F0000F0FD101F0004640007E
:1008200041EB010111F4801F08BF013CF7D041EA00
:10083000060195F0000F18BF704703F00046520004
:1008400043EB030313F4801F08BF013DF7D043EAD5
:100850000603704794EA0C0F0CEA135518BF95EA8B
:100860000C0F0CD050EA410618BF52EA4306D1D112
:1008700081EA030101F000414FF0000070BD50EA31
:10088000410606BF1046194652EA430619D094EABB
:100890000C0F02D150EA013613D195EA0C0F05D1A5
:1008A00052EA03361CBF104619460AD181EA0301F9
:1008B00001F0004141F0FE4141F470014FF00000B1
:1008C00070BD41F0FE4141F4780170BD70B54FF04C
:1008D000FF0C4CF4E06C1CEA11541DBF1CEA1355CC
:1008E00094EA0C0F95EA0C0F00F0A7F8A4EB0504AE
:1008F00081EA030E52EA03354FEA013100F08880A5
:100900004FEA03334FF0805545EA131343EA12636D
:100910004FEA022245EA111545EA10654FEA002622
:100920000EF000419D4208BF964244F1FD0404F5DB
:10093000407402D25B084FEA3202B61A65EB030537
:100940005B084FEA32024FF480104FF4002CB6EBF4
:10095000020E75EB030E22BFB61A754640EA0C0074
:100960005B084FEA3202B6EB020E75EB030E22BFB4
:10097000B61A754640EA5C005B084FEA3202B6EBF5
:10098000020E75EB030E22BFB61A754640EA9C00B4
:100990005B084FEA3202B6EB020E75EB030E22BF84
:1009A000B61A754640EADC0055EA060E18D04FEA42
:1009B000051545EA16754FEA06164FEAC30343EAE2
:1009C00052734FEAC2025FEA1C1CC0D111F4801FAF
:1009D0000BD141EA00014FF000004FF0004CB6E7A8
:1009E00011F4801F04BF01430020B4F1FD0C88BF47
:1009F000BCF5E06F3FF6AFAEB5EB030C04BFB6EB52
:100A0000020C5FEA500C50F1000041EB045170BD44
:100A10000EF0004E4EEA113114EB5C04C2BFD4EB71
:100A20000C0541EA045170BD41F480114FF0000EF5
:100A3000013C90E645EA060E8DE60CEA135594EA71
:100A40000C0F08BF95EA0C0F3FF43BAF94EA0C0F74
:100A50000AD150EA01347FF434AF95EA0C0F7FF4E9
:100A600025AF104619462CE795EA0C0F06D152EA3D
:100A700003353FF4FDAE1046194622E750EA410621
:100A800018BF52EA43067FF4C5AE50EA41047FF432
:100A90000DAF52EA43057FF4EBAE12E74FEA410295
:100AA000B2F1E04324BFB3F5001CDCF1FE5C0DD9CC
:100AB00001F0004C4FEAC0024CEA5070B2F1004F16
:100AC00040EB830008BF20F00100704711F0804F19
:100AD00021D113F13872BCBF01F00040704741F4DE
:100AE00080114FEA5252C2F11802C2F1200C10FAE2
:100AF0000CF320FA02F018BF40F001004FEAC123C6
:100B00004FEAD32303FA0CFC40EA0C0023FA02F369
:100B10004FEA4303CCE77FEA625307D150EA01333F
:100B20001EBF4FF0FE4040F44000704701F000400F
:100B300040F0FE4040F40000704700BF80F00040ED
:100B400002E000BF81F0004142001FBF5FEA4103A5
:100B500092EA030F7FEA226C7FEA236C6AD04FEAA5
:100B60001262D2EB1363C1BFD218414048404140EA
:100B7000B8BF5B42192B88BF704710F0004F40F49C
:100B8000000020F07F4018BF404211F0004F41F4B8
:100B9000000121F07F4118BF494292EA030F3FD084
:100BA000A2F1010241FA03FC10EB0C00C3F1200397
:100BB00001FA03F100F0004302D5494260EB400026
:100BC000B0F5000F13D3B0F1807F06D340084FEA91
:100BD000310102F10102FE2A51D2B1F1004F40EB86
:100BE000C25008BF20F0010040EA030070474900EE
:100BF00040EB0000013A28BFB0F5000FEDD2B0FA8B
:100C000080FCACF1080CB2EB0C0200FA0CF0AABFAD
:100C100000EBC25052421843BCBFD040184370474B
:100C200092F0000F81F4000106BF80F40000013251
:100C3000013BB5E74FEA41037FEA226C18BF7FEA28
:100C4000236C21D092EA030F04D092F0000F08BF6A
:100C50000846704790EA010F1CBF0020704712F051
:100C60007F4F04D1400028BF40F00040704712F190
:100C700000723CBF00F50000704700F0004343F0F5
:100C8000FE4040F4000070477FEA226216BF08462B
:100C90007FEA23630146420206BF5FEA412390EAEE
:100CA000010F40F4800070474FF0000304E000BFE4
:100CB00010F0004348BF40425FEA000C08BF704795
:100CC00043F0964301464FF000001CE050EA010259
:100CD00008BF70474FF000030AE000BF50EA01026E
:100CE00008BF704711F0004302D5404261EB41015B
:100CF0005FEA010C02BF84460146002043F0B64380
:100D000008BFA3F18053A3F50003BCFA8CF2083AA4
:100D1000A3EBC25310DB01FA02FC634400FA02FCAD
:100D2000C2F12002BCF1004F20FA02F243EB0200B4
:100D300008BF20F00100704702F1200201FA02FC16
:100D4000C2F1200250EA4C0021FA02F243EB020009
:100D500008BF20EADC7070474FF0FF0C1CEAD0524D
:100D60001EBF1CEAD15392EA0C0F93EA0C0F6FD00E
:100D70001A4480EA010C400218BF5FEA41211ED0EC
:100D80004FF0006343EA501043EA5111A0FB0131D8
:100D90000CF00040B1F5000F3EBF490041EAD371AD
:100DA0005B0040EA010062F17F02FD2A1DD8B3F129
:100DB000004F40EBC25008BF20F00100704790F098
:100DC000000F0CF0004C08BF49024CEA502040EAEA
:100DD00051207F3AC2BFD2F1FF0340EAC2507047B0
:100DE00040F400004FF00003013A5DDC12F1190FEE
:100DF000DCBF00F000407047C2F10002410021FA60
:100E000002F1C2F1200200FA02FC5FEA310040F177
:100E1000000053EA4C0308BF20EADC70704792F0F0
:100E2000000F00F0004C02BF400010F4000F013A28
:100E3000F9D040EA0C0093F0000F01F0004C02BF23
:100E4000490011F4000F013BF9D041EA0C018FE792
:100E50000CEAD15392EA0C0F18BF93EA0C0F0AD098
:100E600030F0004C18BF31F0004CD8D180EA0100BE
:100E700000F00040704790F0000F17BF90F0004F57
:100E8000084691F0000F91F0004F14D092EA0C0F39
:100E900001D142020FD193EA0C0F03D14B0218BFCC
:100EA000084608D180EA010000F0004040F0FE4012
:100EB00040F40000704740F0FE4040F440007047AE
:100EC0004FF0FF0C1CEAD0521EBF1CEAD15392EA2D
:100ED0000C0F93EA0C0F69D0A2EB030280EA010C1D
:100EE00049024FEA402037D04FF0805343EA1111B6
:100EF00043EA10130CF000408B4238BF5B0042F114
:100F00007D024FF4000C8B4224BF5B1A40EA0C00B8
:100F1000B3EB510F24BFA3EB510340EA5C00B3EBEA
:100F2000910F24BFA3EB910340EA9C00B3EBD10FD8
:100F300024BFA3EBD10340EADC001B0118BF5FEA2A
:100F40001C1CE0D1FD2A3FF650AF8B4240EBC25053
:100F500008BF20F0010070470CF0004C4CEA502014
:100F60007F32C2BFD2F1FF0340EAC250704740F463
:100F700000004FF00003013A37E792F0000F00F055
:100F8000004C02BF400010F4000F013AF9D040EAD3
:100F90000C0093F0000F01F0004C02BF490011F467
:100FA000000F013BF9D041EA0C0195E70CEAD1535F
:100FB00092EA0C0F08D142027FF47DAF93EA0C0F46
:100FC0007FF470AF084676E793EA0C0F04D14B022A
:100FD0003FF44CAF08466EE730F0004C18BF31F0DC
:100FE000004CCAD130F000427FF45CAF31F00043D6
:100FF0007FF43CAF5FE700BF42000ED2B2F1FE4F7C
:101000000BD34FF09E03B3EB126209D44FEA0023D7
:1010100043F0004323FA02F070474FF0000070479E
:1010200012F1610F01D1420202D14FF0FF3070473F
:101030004FF00000704700BF53B94AB9002908BFFC
:1010400000281CBF4FF0FF314FF0FF3000F074B9A3
:10105000ADF1080C6DE904CE00F006F8DDF804E00F
:10106000DDE9022304B070472DE9F047089E0D46E4
:1010700004468846002B4DD18A42944668D9B2FA7C
:1010800082F252B101FA02F3C2F1200120FA01F119
:101090000CFA02FC41EA030894404FEA1C45210C7B
:1010A000B8FBF5FE1FFA8CF705FB1E8341EA0343EC
:1010B0000EFB07F199420BD91CEB03030EF1FF3035
:1010C00080F01E81994240F21B81AEF1020E634412
:1010D0005B1AA4B2B3FBF5F005FB103344EA0344FA
:1010E00000FB07F7A7420AD91CEB040400F1FF3309
:1010F00080F00881A74240F2058164440238E41B75
:1011000040EA0E4000211EB1D4400023C6E900434E
:10111000BDE8F0878B4208D9002E00F0EE80002158
:10112000C6E900050846BDE8F087B3FA83F1002957
:101130004AD1AB4202D3824200F2F980841A65EBB5
:10114000030301209846002EE2D0C6E90048DFE7FD
:1011500002B9FFDEB2FA82F2002A40F09180A1EBE0
:101160000C054FEA1C471FFA8CFE0121B5FBF7F373
:1011700007FB1350250C45EA00450EFB03F0A8427F
:1011800008D91CEB050503F1FF3802D2A84200F292
:10119000CB8043462D1AA4B2B5FBF7F007FB1055E0
:1011A00044EA05440EFB00FEA64508D91CEB0404E6
:1011B00000F1FF3502D2A64500F2BB802846A4EB21
:1011C0000E0440EA03409EE7C1F120078B4022FA5B
:1011D00007FC4CEA030C20FA07F405FA01F31C4360
:1011E000FD404FEA1C4900FA01F3B5FBF9F8200C69
:1011F0001FFA8CFE09FB185540EA054508FB0EF066
:10120000A84202FA01F20BD91CEB050508F1FF3ADE
:1012100080F08880A84240F28580A8F102086544E9
:101220002D1AA4B2B5FBF9F009FB105544EA0545A7
:1012300000FB0EFEAE4508D91CEB050500F1FF349E
:101240006CD2AE456AD90238654440EA0840A0FB3A
:101250000294A5EB0E05A542C846A64656D353D028
:101260005EB1B3EB080265EB0E0505FA07F722FA4B
:1012700001F3CD401F43C6E900750021BDE8F087AA
:10128000C2F1200320FA03F10CFA02FC25FA03F361
:1012900095400D434FEA1C471FFA8CFEB3FBF7F154
:1012A00007FB11302B0C43EA004301FB0EF0984280
:1012B00004FA02F408D91CEB030301F1FF382FD222
:1012C00098422DD9023963441B1AADB2B3FBF7F033
:1012D00007FB103345EA034500FB0EF3AB4208D988
:1012E0001CEB050500F1FF3816D2AB4214D90238C9
:1012F0006544ED1A40EA014138E73146304607E7D8
:101300008646E5E61846FAE64B45A9D2B9EB02084F
:1013100064EB0C0E0138A3E74046EAE7204694E769
:101320004146D1E7D0467BE7023B654432E70846B9
:1013300009E76444023842E7704700BF000000003C
:1013400001F0FF01102A2BDB10F0070F08D010F876
:10135000013B013A8B422DD010F0070F42B3F6D17A
:10136000F0B441EA012141EA014122F007047FF093
:1013700000070023F0E80256083C85EA010586EAEA
:10138000010685FA47F5A3FA87F586FA47F6A5FA26
:1013900087F68EB9EED1F0BC01F0FF0102F0070232
:1013A00032B110F8013B013A83EA010313B1F8D1DD
:1013B0000020704701387047002D06BF35460338BE
:1013C000073815F0010F07D1013015F4807F02BFF7
:1013D000013015F4C03F0130F0BC0138704700BF48
:1013E000844641EA000313F003036DD1403A41D330
:1013F00051F8043B40F8043B51F8043B40F8043BEF
:1014000051F8043B40F8043B51F8043B40F8043BDE
:1014100051F8043B40F8043B51F8043B40F8043BCE
:1014200051F8043B40F8043B51F8043B40F8043BBE
:1014300051F8043B40F8043B51F8043B40F8043BAE
:1014400051F8043B40F8043B51F8043B40F8043B9E
:1014500051F8043B40F8043B51F8043B40F8043B8E
:1014600051F8043B40F8043B51F8043B40F8043B7E
:10147000403ABDD2303211D351F8043B40F8043B1E
:1014800051F8043B40F8043B51F8043B40F8043B5E
:1014900051F8043B40F8043B103AEDD20C3205D32E
:1014A00051F8043B40F8043B043AF9D2043208D026
:1014B000D2071CBF11F8013B00F8013B01D30B8898
:1014C00003806046704700BF082A13D38B078DD076
:1014D00010F003038AD0C3F10403D21ADB071CBF48
:1014E00011F8013B00F8013B80D331F8023B20F8B2
:1014F000023B7BE7043AD9D3013A11F8013B00F8EB
:10150000013BF9D20B7803704B7843708B78837072
:10151000604670470000000000000000000000006E
:1015200000000000000000000000000000000000BB
:1015300000000000000000000000000000000000AB
:1015400090F800F06DE9024520F007016FF0000C03
:1015500010F0070491F820F040F049804FF00004AB
:101560006FF00700D1E9002391F840F000F1080086
:1015700082FA4CF2A4FA8CF283FA4CF3A2FA8CF3BE
:101580004BBBD1E9022382FA4CF200F10800A4FA25
:101590008CF283FA4CF3A2FA8CF3E3B9D1E9042379
:1015A00082FA4CF200F10800A4FA8CF283FA4CF3B0
:1015B000A2FA8CF37BB9D1E9062301F1200182FA6A
:1015C0004CF200F10800A4FA8CF283FA4CF3A2FA70
:1015D0008CF3002BC6D0002A04BF04301A4612BA7E
:1015E000B2FA82F2FDE8024500EBD2007047D1E981
:1015F000002304F00305C4F100004FEAC50514F010
:10160000040F91F840F00CFA05F562EA05021CBFE0
:1016100063EA050362464FF00004A9E74FF0FF3C80
:1016200006E000BF4FF0010C02E000BF4FF0010CDC
:101630004DF804CD4FEA410C7FEA6C5C4FEA430C55
:1016400018BF7FEA6C5C1BD001B050EA410C0CBFA4
:1016500052EA430C91EA030F02BF90EA020F002006
:10166000704710F1000F91EA030F58BF994208BF6D
:1016700090422CBFD8176FEAE37040F0010070472A
:101680004FEA410C7FEA6C5C02D150EA013C07D181
:101690004FEA430C7FEA6C5CD6D152EA033CD3D0CC
:1016A0005DF8040B704700BF8446104662468C46C6
:1016B0001946634600E000BF01B5FFF7B7FF0028F9
:1016C00048BF10F1000F01BD4DF808EDFFF7F4FF22
:1016D0000CBF012000205DF808FB00BF4DF808EDAD
:1016E000FFF7EAFF34BF012000205DF808FB00BFD0
:1016F0004DF808EDFFF7E0FF94BF012000205DF8F2
:1017000008FB00BF4DF808EDFFF7CEFF94BF0120A6
:1017100000205DF808FB00BF4DF808EDFFF7C4FF9F
:1017200034BF012000205DF808FB00BF4FEA410CE8
:101730007FEA6C5C02D150EA013C0AD14FEA430CCB
:101740007FEA6C5C02D152EA033C02D14FF0000008
:1017500070474FF0010070474FEA410212F5001246
:1017600015D211D56FF47873B3EB625212D94FEAE8
:10177000C12343F0004343EA505311F0004F23FAD2
:1017800002F018BF404270474FF00000704750EA27
:10179000013005D111F0004008BF6FF000407047E4
:1017A0004FF00000704700BFF0B583B00646BDF8AB
:1017B0002000BDF82470904288BF8B4204D95D1A86
:1017C000841A04FB05F50DB903B0F0BD013B0138E7
:1017D00080B200909BB2304600F0A7FA304600F08D
:1017E0001BFA002404E03946304600F0F9F90134D0
:1017F000AC42F8D30121304600F0E3F9E4E738B514
:1018000005460C46362100F06FFA032C17D8DFE8A6
:1018100004F002070C110021284600F022FA38BD1E
:10182000A021284600F01DFAF9E7C021284600F063
:1018300018FAF4E76021284600F013FAEFE7C02118
:10184000284600F00EFAEAE710B5044600F0E8F981
:101850000021204600F058F9642001F0F7FA012138
:10186000204600F051F9642001F0F0FA01212046F1
:1018700000F05FF9642001F0E9FA0121204600F050
:1018800033FA782001F0E2FA1121204600F02CFA18
:10189000782001F0DBFA94F82E102046FFF7AFFF16
:1018A0003A21204600F020FA0521204600F0D9F91F
:1018B000B221204600F018FA0C21204600F0D1F9A0
:1018C0000C21204600F0CDF90021204600F0C9F996
:1018D0003321204600F0C5F93321204600F0C1F93C
:1018E000B721204600F000FA7221204600F0B9F935
:1018F000BB21204600F0F8F93D21204600F0B1F967
:10190000C021204600F0F0F92C21204600F0A9F972
:10191000C221204600F0E8F90121204600F0A1F99B
:10192000C321204600F0E0F91921204600F099F982
:10193000C421204600F0D8F92021204600F091F97A
:10194000C621204600F0D0F90521204600F089F993
:10195000D021204600F0C8F9A421204600F081F9EA
:10196000A121204600F07DF9D621204600F0BCF9E7
:10197000A121204600F075F9E021204600F0B4F9DD
:10198000D021204600F06DF90421204600F069F9CD
:101990000D21204600F065F91121204600F061F983
:1019A0001321204600F05DF92B21204600F059F963
:1019B0003F21204600F055F95421204600F051F90E
:1019C0004C21204600F04DF91821204600F049F93D
:1019D0000D21204600F045F90B21204600F041F989
:1019E0001F21204600F03DF92321204600F039F95F
:1019F000E121204600F078F9D021204600F031F9AD
:101A00000421204600F02DF90C21204600F029F990
:101A10001121204600F025F91321204600F021F97C
:101A20002C21204600F01DF93F21204600F019F935
:101A30004421204600F015F95121204600F011F90B
:101A40002F21204600F00DF91F21204600F009F952
:101A50001F21204600F005F92021204600F001F961
:101A60002321204600F0FDF82121204600F03CF91A
:101A70002921204600F038F9142001F0E7F910BDC3
:101A80000023032B0DDC074A52F823202AB11168EA
:101A90000268914201D00133F3E7024A42F8230081
:101AA00070477047DC090024024630B190F82C30B2
:101AB0001BB192F82D30002BFBD1704701604260C2
:101AC00003814FF48053038500234385436203233E
:101AD00080F82E30022380F82F30012380F8303038
:101AE0007047C16002824361BDF800300383019BEF
:101AF000C361BDF808300384704780F82E1080F869
:101B00002F2080F83030704708B50A46018B4069B5
:101B100002F08DFD08BD08B50A46018AC06802F0D2
:101B200086FD08BD08B50A460189406802F07FFDC0
:101B300008BD08B50A46018CC06902F078FD08BDF1
:101B400008B504F08DFD08BD08B504F0EBFE08BD36
:101B5000B0B3F8B50F4616461D460446036873B386
:101B6000B1FA81F0400952B348BB2046FFF79CFF11
:101B700001212046FFF7CFFF00212046FFF7D2FFCB
:101B800094F82C3083B1012384F82D303246394645
:101B90002068FFF7D9FF95B12046FFF785FF0121A7
:101BA0002046FFF7BFFF0AE04FF0FF3332463946C9
:101BB0002068FFF7C5FF01212046FFF7B3FFF8BDFE
:101BC000704760B110B50B460446416A09B1428DB9
:101BD00002B910BDFFF7BCFF00236385F9E770472A
:101BE000C8B138B50D460446436A7BB1428D038DBA
:101BF000013B9A420BDA626A638D591C6185290A9E
:101C0000D154626A638D591C6185D55438BD002159
:101C1000FFF7D7FFEFE7704708B100224285704712
:101C2000F0B138B50446056875B1436A6BB100235D
:101C30006385AB6F83B1012384F82C30002384F8D3
:101C40002D302046FFF71CFF38BD008D06F07CF9D3
:101C500060620028EBD1F7E7002384F82C30EDE731
:101C6000704710B582B08DF80710C0B10446036804
:101C7000ABB1FFF719FF01212046FFF74CFF002110
:101C80002046FFF74FFF4FF0FF3301220DF1070110
:101C90002068FFF755FF01212046FFF743FF02B000
:101CA00010BD00B310B582B004460368CBB10B0A77
:101CB0008DF804308DF80510FFF7F6FE012120465F
:101CC000FFF729FF00212046FFF72CFF4FF0FF33DD
:101CD000022201A92068FFF733FF01212046FFF708
:101CE00021FF02B010BD704710B582B08DF807100B
:101CF000C8B104460368B3B10121FFF762FF0021B8
:101D00002046FFF708FF00212046FFF70BFF4FF0AA
:101D1000FF3301220DF107012068FFF711FF0121B8
:101D20002046FFF7FFFE02B010BD2DE9F041BDF8DF
:101D30001880D0B30F4616461D4604460121FFF712
:101D400040FF2A212046FFF7CFFF94F82E000228FB
:101D500018BF00282BD194F82F10394489B220469F
:101D6000FFF79FFF94F82F10294489B22046FFF710
:101D700098FF2B212046FFF7B7FF94F82E30022B57
:101D800018BF002B22D194F83010314489B220467C
:101D9000FFF787FF94F83010414489B22046FFF7DF
:101DA00080FF2C212046FFF79FFFBDE8F08194F8CB
:101DB0003010394489B22046FFF773FF94F8301091
:101DC000294489B22046FFF76CFFD2E794F82F1020
:101DD000314489B22046FFF764FF94F82F10414444
:101DE00089B22046FFF75DFFDBE700000023032BED
:101DF00019DC10B50AE001212046FFF793FE00230D
:101E000084F82D300EE00133032B0BDC064A52F828
:101E10002340002CF7D022688242F4D194F82C3071
:101E2000002BE8D110BD7047DC0900242DE9F04FEC
:101E300089B0814606939DF848009DF84C30BDF866
:101E400050A0BDF8544003949DF85880DC1DE51067
:101E50000595E408049484B20794084484B29FB2C0
:101E6000981880B2631E013880B200909BB2484639
:101E7000FFF75BFF4846FFF7CFFE4FF0000B29E06E
:101E800051464846FFF7ACFE0134A4B2072C11D8E6
:101E900004EBC5039BB29F420CD946FA04F313F03E
:101EA000010FEDD1B8F1000FEED103994846FFF7CD
:101EB00097FEE9E70135EDB2049B9D4206D2059BF2
:101EC00003FB0B53069AD65C0024DFE70BF1010BF2
:101ED0001FFA8BFB079B5B4501D90025ECE701212D
:101EE0004846FFF76EFE09B0BDE8F08F70B586B0CA
:101EF0009DF83040102C28D00C2C22D04FF0060E2C
:101F0000144C65782678A3F1200C5FFA8CFCBCF1A8
:101F10005E0F00D92023A3F1200C1FFA8CFC63680C
:101F20009DF834400494BDF82C400394BDF828403B
:101F30000294019600950EFB0C33FFF777FF06B075
:101F400070BD4FF00C0E044CDBE74FF0100E034C4D
:101F5000D7E700BFF8DD0008E8DD0008F0DD000885
:101F60002DE9F04F85B007468B4616461C46BDF856
:101F700038A0BDF83C909DF840509DF8448005E0A5
:101F8000104B597859441FFA81FB01342378ABB1C7
:101F9000CDF80C800295CDF80490CDF800A0324623
:101FA00059463846FFF7A2FF102DE9D00C2D02D07C
:101FB000054B5978E6E7054B5978E3E705B0BDE8EE
:101FC000F08F00BFF0DD0008F8DD0008E8DD000854
:101FD00000B583B00B4BD3F8D82042F00102C3F810
:101FE000D820D3F8D83003F001030193019B0022DD
:101FF00011460B2000F056FF0B2000F089FF03B0C4
:102000005DF804FB004402582DE9F0418CB0002437
:102010000794089409940A940B94454BD3F8E02054
:1020200042F08002C3F8E020D3F8E02002F0800202
:102030000192019AD3F8E02042F00402C3F8E020B4
:10204000D3F8E02002F004020292029AD3F8E020D2
:1020500042F01002C3F8E020D3F8E02002F01002B2
:102060000392039AD3F8E02042F00202C3F8E02082
:10207000D3F8E02002F002020492049AD3F8E020A0
:1020800042F00802C3F8E020D3F8E02002F0080292
:102090000592059AD3F8E02042F00102C3F8E0204F
:1020A000D3F8E03003F001030693069BDFF8848049
:1020B00022464FF47041404602F0B9FA1E4E2246C5
:1020C0004FF4D841304602F0B2FA1C4F22464FF48A
:1020D0008061384602F0ABFA4FF470430793012554
:1020E000089509940A9407A9404602F085F94FF42F
:1020F000D8430793089509940A9407A9304602F03B
:102100007BF94FF4104307930894099407A93046CC
:1021100002F072F94FF480630793089509940A94CA
:1021200007A9384602F068F90CB0BDE8F08100BF9D
:102130000044025800100258000C025800000258D7
:1021400010B584B00024009401940294039400F02C
:1021500001FF01238DF800308DF8014001941F220A
:102160008DF8082087228DF809208DF80A408DF817
:102170000B408DF80C308DF80D308DF80E408DF839
:102180000F40684600F004FF042000F0F1FE04B0A8
:1021900010BD000030B585B0134D144C4FF4005302
:1021A0002A4613492046FFF789FC4FF480530293D7
:1021B00001954FF4004300932B464FF4804229468B
:1021C0002046FFF78EFC1E23002203212046FFF746
:1021D00094FC2046FFF724FD2046FFF735FB4FF423
:1021E0008063238505B030BD00100258EC0900243F
:1021F000000B002472B6FEE700B59DB04C22002112
:1022000009A806F059F92022002101A806F054F986
:10221000022002F013FA00230093264B9A6942F43D
:1022200040429A619B6903F440430093224BDA6A6F
:1022300042F00102DA62DB6A03F001030093009BC3
:102240001C4B9B6913F4005FFAD00223099301220F
:102250000C9240220D9212930022139204211491A9
:102260003C21159116930521179118930C2319936E
:102270001A921B9209A802F00BFAB8B93F230193F6
:10228000032302930023039308230493402305931D
:1022900006934FF480620792089304210DEB01002E
:1022A00002F05CFE20B91DB05DF804FBFFF7A2FF51
:1022B000FFF7A0FF00480258000400582DE9F04342
:1022C00085B0FFF73DFF00F081FDFFF795FFFFF7B9
:1022D0009BFEFFF77DFE00F0A3FC00F061F800F02C
:1022E0003DFC00F08DF8FFF755FF00240194F0232A
:1022F00000934FF4A073224621462348FFF754FA77
:1023000000F07CFBA046012000F0A0FD08F10108D0
:102310001D4D002403941027029701944FF6FF7679
:1023200000961A4B142211462846FFF719FE642125
:10233000204600F0D1FB206800F0BAFBFEF744F91C
:1023400002460B46DFF848901249484606F024F949
:1023500003940297019400964B46282214212846A4
:10236000FFF7FEFDDFF8309042460C49484606F084
:1023700013F903940297019400964B463C221421D2
:102380002846FFF7EDFDBEE7EC0900248CEA0008C3
:10239000200A002498EA0008540A0024A4EA00084D
:1023A00008B51548154B03604FF4800343604FF4A4
:1023B000003383600723C3600023036143614FF050
:1023C000806282614FF04052C26103624362836265
:1023D000C3624FF0804242638363C3630364436418
:1023E0008364C36403654365836504F071F800B9D1
:1023F00008BDFFF7FFFEFBE7000B0024003800409C
:1024000008B51548154B03604FF480034360002363
:1024100083600F22C2604FF00072026143614FF08F
:10242000806282614FF04052C26103624362836204
:10243000C3624FF0804242638363C36303644364B7
:102440008364C36403654365836504F041F800B9A0
:1024500008BDFFF7CFFEFBE7880B0024003C0040DF
:1024600070B5BCB0044600213791389139913A914A
:102470003B91C02206A806F01FF82368564A9342F3
:1024800004D0564A93424BD03CB070BD4FF48052BA
:102490000023CDE9062306A802F0FCFF00283CD16A
:1024A0004F4BD3F8E82042F48042C3F8E820D3F839
:1024B000E82002F480420192019AD3F8E02042F031
:1024C0000402C3F8E020D3F8E02002F004020292F4
:1024D000029AD3F8E02042F00202C3F8E020D3F8D9
:1024E000E03003F002030393039B022537953895F0
:1024F000002439943A9405263B9637A9394801F0CF
:102500007BFF4FF480633793389539943A943B9628
:1025100037A9354801F070FFB6E7FFF76BFEBFE75C
:102520004FF480520023CDE9062306A802F0B2FF43
:1025300000284AD12A4BD3F8E82042F40042C3F8DD
:10254000E820D3F8E82002F400420492049AD3F879
:10255000E02042F00402C3F8E020D3F8E03003F0BA
:1025600004030593059B4FF4E053379302233893FC
:10257000002539953A9506233B9337A9194801F070
:102580003BFF1A481A4B03603D2343608560C560DA
:102590004FF4806303614FF4006343614FF40053D1
:1025A00083614FF48073C3610562456200F030FFC0
:1025B00070B90E4BE3679C6300221146332000F094
:1025C00071FC332000F0A4FC5EE7FFF713FEB1E7D7
:1025D000FFF710FEEDE700BF00380040003C004070
:1025E000004402580008025800040258880A0024D7
:1025F0001000024082B0074BD3F8F42042F00202F0
:10260000C3F8F420D3F8F43003F002030193019BE4
:1026100002B0704700440258FEE7FEE7FEE7FEE71F
:10262000FEE770477047704708B500F0FDFB08BD36
:1026300008B5024801F042FB08BD00BF880A00242B
:1026400008B5024804F003FD08BD00BF140C0024C7
:1026500008B5024804F08AFA08BD00BF880B0024C0
:102660000120704708B505F045FC162303604FF0C4
:10267000FF3008BD08B54FF0FF31FFF7F3FFFEE76D
:1026800070B50C461646002506E0AFF300802146E3
:1026900001F8010B01350C46B542F6DB304670BD42
:1026A00070B50C461646002504E014F8010BAFF394
:1026B00000800135B542F8DB304670BD4FF0FF3089
:1026C00070474FF400534B60002070470120704763
:1026D0000020704710B503460C4A0D490D480068AC
:1026E00040B10C4800680344521A934206D8094A84
:1026F000136010BD0748084C0460F2E705F0FAFBD0
:102700000C2303604FF0FF30F3E700BF0000082404
:1027100000040000100C0024400D00242D4B1B6809
:1027200003F00F03062B06D82A4A136823F00F0381
:1027300043F007031360284B1A6842F001021A6045
:1027400000221A611968254A0A401A60214B1B6849
:1027500013F0080F06D01F4A136823F00F0343F04D
:10276000070313601C4B00229A61DA611A621C494C
:1027700099621C49D9621C4919635A639963DA63E7
:1027800019645A64196821F4802119601A66174B7C
:102790001A68174B1340B3F1005F03D2154B0122A7
:1027A000C3F808210C4BD3F8D43013F4805F10D158
:1027B000094BD3F8D42042F48052C3F8D4200E4AF7
:1027C00043F2D2011160D3F8D42022F48052C3F82E
:1027D000D420704700200052004402587FEDF6EAF2
:1027E000000202020000FF01800201010010005CF3
:1027F0000000FFFF0080005100400052054AD368EE
:1028000043F00203D360034B5B6813F4005FFAD01C
:10281000704700BF0048025882B04FF4FA7303FBC0
:1028200000F0019002E0019B013B0193019B002B12
:10283000F9D102B07047000010B50E4C01224FF4E0
:102840008061204601F0F3FE0120FFF7E5FF012241
:102850004FF48041204601F0EAFE0120FFF7DCFF43
:1028600000224FF48061204601F0E1FE0120FFF7D5
:10287000D3FF10BD000C025810B50E4C01224FF4CE
:102880008061204601F0D3FE0120FFF7C5FF002242
:102890004FF48041204601F0CAFE0120FFF7BCFF43
:1028A00000224FF48061204601F0C1FE0120FFF7B5
:1028B000B3FF10BD000C025870B5064600224FF45D
:1028C00000610A4801F0B3FE8025082404E0FFF708
:1028D000D3FF6D08013CE4B224B13542F7D0FFF7D5
:1028E000ABFFF6E70120FFF797FF70BD000C025821
:1028F00070B5064600224FF400610F4801F097FEC4
:102900000120FFF789FF4FF00045202404E0FFF786
:10291000B3FF6D08013CE4B224B13542F7D0FFF7B4
:102920008BFFF6E70120FFF777FF01224FF40061EC
:10293000014801F07CFE70BD000C0258F8B5002281
:102940004FF400611C4801F072FE0120FFF764FFA4
:1029500000274FF0004620240EE076080120FFF704
:102960005BFF00224FF48061134801F060FE0320FA
:10297000FFF752FF013CE4B294B10F4D01224FF436
:102980008061284601F053FE0320FFF745FF4FF416
:102990000041284601F044FE0028DED03743DCE742
:1029A0000320FFF739FF01224FF40061024801F0D4
:1029B0003EFE3846F8BD00BF000C025810B50E4C64
:1029C00001224FF40051204601F031FE0120FFF7B3
:1029D00023FF00224FF40051204601F028FE05207D
:1029E000FFF71AFF01224FF40051204601F01FFEAD
:1029F0000120FFF711FF10BD000C025808B5FFF7CA
:102A0000DDFF5020FFF758FF0120FFF705FF0122EF
:102A10004FF40061164801F00AFE1648FFF768FF00
:102A20000120FFF7F9FE1448FFF762FF0120FFF7CE
:102A3000F3FE1248FFF75CFF0120FFF7EDFE1048A0
:102A4000FFF756FF0120FFF7E7FE0E48FFF750FFA4
:102A50000120FFF7E1FE0C48FFF74AFF0120FFF7D6
:102A6000DBFE7020FFF728FF0120FFF7D5FE08BD31
:102A7000000C025820940080000101810000E082D7
:102A800000000883000020840000088538B585B266
:102A90000014FEF70DF904462846FEF705F94FF03D
:102AA0005E51FEF759F901462046FEF74DF838BD54
:102AB00008B5FFF7EBFFFDF787FD05A3D3E900237A
:102AC000FDF704FFFDF7EAFF08BD00BFAFF300808C
:102AD000FCA9F1D24D62603FF8B507460D4600F003
:102AE000AFF904467020FFF7E7FE0120FFF794FEE0
:102AF00001224FF40061174801F099FD164B4FF089
:102B000080629A610023A3B1134B4FF480629A61F3
:102B10004FF480510F4801F083FD064660B101205B
:102B2000FFF77AFE00F08CF9001BA842F0D90126CD
:102B30000EE00133DBB2E6E70120FFF76DFEB020C7
:102B4000FFF7BAFE0120FFF767FEFFF7F7FE3860D8
:102B50003046F8BD000C02580000025800B58BB09A
:102B6000002307930893099300930193029303931F
:102B70000493059306931648164A026043608360E7
:102B80004FF6FF72C2600361836104F09FFBA8B936
:102B9000202307930023099307A90D4804F04EFC56
:102BA00078B9002200920192029204926946084884
:102BB00004F006FC40B90BB05DF804FBFFF71AFB0C
:102BC000E6E7FFF717FBECE7FFF714FBF3E700BFBF
:102BD000140C00240008004002680F4B9A4200D0F9
:102BE000704700B583B00D4BD3F8E82042F00402E3
:102BF000C3F8E820D3F8E83003F004030193019B05
:102C0000002211461E2000F04DF91E2000F080F930
:102C100003B05DF804FB00BF000800400044025808
:102C200008B51748174B0360174B436000238360B8
:102C3000C36003610C2242618361C361036243622A
:102C4000836205F094F870B900210D4805F007F98A
:102C500060B900210A4805F027F950B9084805F085
:102C6000DFF848B908BDFFF7C5FAEDE7FFF7C2FA8C
:102C7000EFE7FFF7BFFAF1E7FFF7BCFAF2E700BFB3
:102C8000600C0024001001400094110010B5B8B091
:102C90000446002133913491359136913791C02209
:102CA00002A805F009FC22681B4B9A4201D038B0FB
:102CB00010BD01220023CDE9022302A802F0EAFBA5
:102CC00038BB164BD3F8F02042F01002C3F8F020C6
:102CD000D3F8F02002F010020092009AD3F8E0201E
:102CE00042F00202C3F8E020D3F8E03003F0020320
:102CF0000193019B4FF44043339302233493002309
:102D0000359336930423379333A9054801F074FBB8
:102D1000CDE7FFF76FFAD4E70010014000440258F6
:102D200000040258DFF838D0FFF768FDFFF7F6FC23
:102D30000C480D490D4A002302E0D458C450043316
:102D4000C4188C42F9D30A4A0A4C002301E01360EC
:102D50000432A242FBD305F0D3F8FFF7AFFA704775
:102D60000000082400000024C0090024FCEE000834
:102D7000C0090024400D0024FEE70000104B1B7822
:102D80000BB90120704710B504464FF47A70B0FBC0
:102D9000F3F30C4A1068B0FBF3F000F0C7F868B921
:102DA0000F2C01D901200AE0002221464FF0FF300C
:102DB00000F078F8044B1C60002000E0012010BDFA
:102DC00008000024000000240C00002410B503209B
:102DD00000F056F801F0B6FF0F498B69C3F30323E7
:102DE0000E4AD35C03F01F03D8408B6903F00F0336
:102DF000D35C03F01F0320FA03F3094A1360094B65
:102E000018600F20FFF7BAFF10B10124204610BD53
:102E10000446FFF7EFFBF9E700440258ACEA00086C
:102E20000400002400000024034B1B78034A1168AF
:102E30000B441360704700BF08000024F40C00240A
:102E4000014B1868704700BFF40C002438B50446E5
:102E5000FFF7F6FF0546B4F1FF3F02D0044B1B78A5
:102E60001C44FFF7EDFF401BA042FAD338BD00BF62
:102E700008000024014B1868000C70470010005C2B
:102E80000649CB6823F4E0631B041B0C000200F42A
:102E9000E0600343024A1A43CA60704700ED00E055
:102EA0000000FA0500B5174BDB68C3F30223C3F13A
:102EB000070CBCF1040F28BF4FF0040C03F1040E03
:102EC000BEF1060F14D9033B4FF0FF3E0EFA0CFC87
:102ED00021EA0C0199400EFA03F322EA0303194395
:102EE000002807DB0901C9B2074B19545DF804FB40
:102EF0000023E9E700F00F000901C9B2034B1954A0
:102F0000F4E700BF00ED00E000E400E014ED00E0B5
:102F1000002807DB00F01F02400901239340024A0A
:102F200042F82030704700BF00E100E00138B0F106
:102F3000807F0BD24FF0E0235861054AF02182F8E0
:102F400023100020986107221A6170470120704702
:102F500000ED00E0BFF35F8F044B5A6A22F4803229
:102F60005A620022C3F89420704700BF00ED00E0D1
:102F700040F00100054BC3F894005A6A42F48032D5
:102F80005A62BFF34F8FBFF36F8F704700ED00E0C1
:102F90004378144AC2F89830D2F8A03023F00103E5
:102FA000C2F8A0304368C2F89C30017BC37A1B068C
:102FB00043EA0173817A43EAC143417B43EA814397
:102FC000817B43EA4143C17B43EA0143417A43EABF
:102FD0000123017A43EA410301780B43C2F8A03090
:102FE000704700BF00ED00E0F0B4876D0468664EE6
:102FF000664DAC4218BFB44242D01835AC423FD007
:103000001835AC423CD01835AC4239D01835AC42FA
:1030100036D01835AC4233D01835AC4230D005F537
:103020005675AC422CD01835AC4229D01835AC427C
:1030300026D01835AC4223D01835AC4220D01835F4
:10304000AC421DD01835AC421AD01835AC4217D05E
:103050004F4DAC4214D01435AC4211D01435AC42B3
:103060000ED01435AC420BD01435AC4208D0143518
:10307000AC4205D01435AC4202D01435AC4207D175
:10308000446E856E6560C46E14B1046F456F6560F3
:1030900004683D4E3D4DAC4218BFB44252D0183585
:1030A000AC424FD01835AC424CD01835AC4249D068
:1030B0001835AC4246D01835AC4243D01835AC4236
:1030C00040D005F55675AC423CD01835AC4239D0ED
:1030D0001835AC4236D01835AC4233D01835AC4236
:1030E00030D01835AC422DD01835AC422AD0183526
:1030F000AC4227D0264E274DAC4218BFB44211D067
:10310000254DAC420ED01435AC420BD01435AC4238
:1031100008D01435AC4205D01435AC4202D0143579
:10312000AC4224D1C46D04F01F050124AC407C6086
:10313000046863608368402B20D00368996003684B
:10314000DA6014E0C46D04F01F0C3F2404FA0CF4A0
:10315000BC6005682C6824F480242C6004686360DB
:103160008368402B05D0036899600368DA60F0BC7F
:10317000704703689A600368D960F8E703689A604B
:103180000368D960F3E700BF100002402800024046
:10319000085402581C5402583054025803682749F6
:1031A000274A934218BF8B422FD0183293422CD01B
:1031B0001832934229D01832934226D018329342C3
:1031C00023D01832934220D0183293421DD002F5FA
:1031D0005672934219D01832934216D01832934245
:1031E00013D01832934210D0183293420DD01832B7
:1031F00093420AD01832934207D01832934204D037
:1032000023F0FF038365806D704710B4D9B2103985
:103210000C4AA2FB0142C2F302120B4CA25CC26533
:103220005F2906D9094A1A4004328265806D10BCB4
:103230007047064A1A408265F8E700BF1000024056
:1032400028000240ABAAAAAABCEA000800FCFFFFC3
:1032500083699BB9836A012B0AD0022B02D00BB180
:1032600000207047C36A13F0807F2AD10020704786
:10327000C36AB3F1C07F26D000207047B3F5005F6A
:103280000AD0836A022B26D9032B26D1C36A13F0F6
:10329000807F24D100207047836A032B03D8DFE8A6
:1032A00003F01404140A00207047C36A13F0807FEF
:1032B0000DD100207047C36AB3F1C07F09D0002050
:1032C000704701207047012070470120704701209E
:1032D000704701207047012070470020704701208F
:1032E0007047000003682249224A934218BF8B426C
:1032F00028D01432934225D01432934222D0143273
:1033000093421FD0143293421CD01432934219D0EE
:103310001432934216D0DAB2103A1749A1FB0212C6
:10332000120916491944A8291FD9154B13449B00AB
:103330000366144B436602F01F02012303FA02F2F4
:1033400082667047DBB2083B0F4AA2FB03230F4A99
:1033500002EB1312920002660D4A4266C3F3041395
:10336000012202FA03F3836670470832DDE700BFEB
:10337000085402581C540258ABAAAAAAF0FBFDBF7D
:103380000082001080080240CDCCCCCC0096001604
:103390008058025801794A1E072A2CD830B4036895
:1033A000154D164CA34218BFAB4218D01434A3429B
:1033B00015D01434A34212D01434A3420FD01434C5
:1033C000A3420CD01434A34209D01434A34206D033
:1033D0000B4B0B449B00C3660A4B036705E00A4B8B
:1033E0000B449B00C366094B0367012303FA02F2F7
:1033F000426730BC70477047085402581C5402584A
:103400003F820010400902403F9600164059025882
:1034100070B50446FFF714FD002C00F0B681054698
:1034200023685349534A934218BF8B420CBF012271
:10343000002250D030318B424DD018318B424AD0CF
:1034400018318B4247D018318B4244D018318B420F
:1034500041D018318B423ED001F556718B423AD0A3
:1034600018318B4237D018318B4234D018318B420F
:1034700031D018318B422ED018318B422BD01831DD
:103480008B4228D018318B4225D03B493B4A93428E
:1034900018BF8B4200F03181394A934200F02D81F0
:1034A0001432934200F029811432934200F02581B6
:1034B0001432934200F021811432934200F01D81B6
:1034C0001432934200F0198140236365032384F88A
:1034D000353001204AE0022184F83510002184F8BB
:1034E00034107ABB274A93422CD01832934229D009
:1034F0001832934226D01832934223D01832934286
:1035000020D0183293421DD002F55672934219D042
:103510001832934216D01832934213D01832934285
:1035200010D0183293420DD0183293420AD018327C
:10353000934207D01832934204D01A6822F0010255
:103540001A6003E01A6822F001021A6023681A6800
:1035500012F0010F18D0FFF773FC431B052BF5D9B0
:1035600020236365032384F83530012070BD00BF3C
:103570001000024028000240085402581C5402580F
:1035800030540258400002401A6881481040A16837
:10359000E2680A4321690A4361690A43A1690A434F
:1035A000E1690A43216A0A430243616A042900F07F
:1035B00099807849086878490140B1F1005F11D3DA
:1035C0006168A1F12905A1F13F00032888BF052DFD
:1035D00006D9A1F14700012802D94F39032901D8A2
:1035E00042F480121A602668756925F00705636A3F
:1035F0001D43042B08D1A36A1D43E36A23B120466F
:10360000FFF726FE002872D175612046FFF7C6FD40
:10361000E36D03F01F023F239340836023685F49FB
:103620005F4A934218BF8B4242D0183293423FD038
:10363000183293423CD01832934239D01832934218
:1036400036D01832934233D01832934230D002F53C
:10365000567293422CD01832934229D0183293429A
:1036600026D01832934223D01832934220D01832F9
:1036700093421DD0183293421AD01832934217D079
:10368000484A934214D01432934211D014329342D8
:103690000ED0143293420BD01432934208D014321D
:1036A000934205D01432934202D01432934213D184
:1036B0002046FFF717FEA368802B59D0236E22798E
:1036C0001A60636EA26E5A606368013B072B52D981
:1036D0000023E3662367636700206065012384F8A5
:1036E000353043E7E16A206B01430A4361E7402339
:1036F0006365012084F8350038E7022284F835201C
:10370000002284F834201A6827491140A268402A10
:103710002CD0802A27D00022E06842EAD00220691B
:1037200042EAD002606942EAD002A06942EAD002CD
:10373000E06942EAD002206A42EA10120A431A60A3
:1037400022681A4B13441A4AA2FB03231B099B004D
:10375000E3652046FFF722FDE26D02F01F01012222
:103760008A4042605AE74FF48042D5E71022D3E7FF
:1037700000236360A2E72046FFF70CFEE36E002201
:103780001A60236F626F5A60A6E70120EEE600BF61
:103790003F8010FE0010005C0000FFFF10000240A0
:1037A00028000240085402580F00FEFFF8ABFDA7A6
:1037B000CDCCCCCC002800F03E8170B5044690F80A
:1037C0003400012800F03981012084F8340094F895
:1037D0003500C0B2012807D04FF4006363650023B1
:1037E00084F83430012070BD022084F835000020B8
:1037F00060652068924E934DA84218BFB0422FD00A
:103800001835A8422CD01835A84229D01835A8421E
:1038100026D01835A84223D01835A84220D0183514
:10382000A8421DD005F55675A84219D01835A842F2
:1038300016D01835A84213D01835A84210D0183524
:10384000A8420DD01835A8420AD01835A84207D092
:103850001835A84204D0056825F00105056003E08D
:10386000056825F0010505602046FFF7BDFB2368CC
:103870007349744A934218BF8B4238D0183293422E
:1038800035D01832934232D0183293422FD01832AA
:1038900093422CD01832934229D01832934226D02A
:1038A00002F55672934222D0183293421FD018323A
:1038B00093421CD01832934219D01832934216D03A
:1038C0001832934213D01832934210D018329342D8
:1038D0000DD01A6822F00E0242F00A021A60236C20
:1038E00093B12268136843F0040313600CE01A6874
:1038F00022F01E0242F016021A60236C23B12268E5
:10390000136843F00803136023684D494D4A9342FE
:1039100018BF8B4242D0183293423FD018329342A4
:103920003CD01832934239D01832934236D01832F4
:10393000934233D01832934230D002F556729342FC
:103940002CD01832934229D01832934226D0183204
:10395000934223D01832934220D0183293421DD084
:10396000183293421AD01832934217D0364A9342F3
:1039700014D01432934211D0143293420ED0143228
:1039800093420BD01432934208D01432934205D0A4
:103990001432934202D0143293420ED1236E1A682D
:1039A00012F4803F03D01A6842F480721A60E36E0A
:1039B0001BB11A6842F480721A6023682049214AB8
:1039C000934218BF8B4230D0183293422DD0183218
:1039D00093422AD01832934227D01832934224D0EF
:1039E0001832934221D0183293421ED002F55672FB
:1039F00093421AD01832934217D01832934214D0FF
:103A00001832934211D0183293420ED0183293429A
:103A10000BD01832934208D01832934205D01A685E
:103A200042F001021A600020DDE61A6842F001024D
:103A30001A600020D7E6012070470220D3E600BFBD
:103A4000100002402800024008540258002800F0EC
:103A5000298108B5024690F83530DBB2022B03D03D
:103A600080234365012008BD0368904890498B423C
:103A700018BF83420CBF0121002166D03030834241
:103A800063D01830834260D0183083425DD0183044
:103A900083425AD01830834257D01830834254D0D2
:103AA00000F55670834250D0183083424DD0183004
:103AB00083424AD01830834247D01830834244D0E2
:103AC0001830834241D0183083423ED018308342B0
:103AD0003BD0196821F00E0119601368A0F59560BC
:103AE00073498B4218BF83426AD072498B4267D0B8
:103AF00018318B4264D018318B4261D018318B421F
:103B00005ED018318B425BD018318B4258D001F512
:103B100056718B4254D018318B4251D018318B42A0
:103B20004ED018318B424BD018318B4248D01831CF
:103B30008B4245D018318B4242D018318B423FD056
:103B4000196821F0010119603EE0042082F8350077
:103B500081BB584A93422DD0183293422AD0183252
:103B6000934227D01832934224D01832934221D066
:103B7000183293421ED002F5567293421AD0183270
:103B8000934217D01832934214D01832934211D076
:103B9000183293420ED0183293420BD0183293420F
:103BA00008D01832934205D01A6822F001021A6038
:103BB000002058E71A6822F001021A60002052E73C
:103BC000196821F0010119601368384838498B429F
:103BD00018BF834242D018318B423FD018318B42FC
:103BE0003CD018318B4239D018318B4236D0183145
:103BF0008B4233D018318B4230D001F556718B4255
:103C00002CD018318B4229D018318B4226D0183154
:103C10008B4223D018318B4220D018318B421DD0DB
:103C200018318B421AD018318B4217D022498B425F
:103C300014D014318B4211D014318B420ED0143178
:103C40008B420BD014318B4208D014318B4205D0FB
:103C500014318B4202D014318B4217D1116E0B6894
:103C600023F480730B60906DD36D03F01F0101236B
:103C70008B404360536E916E5960D36E33B11968B7
:103C800021F480711960136F516F5960012382F81C
:103C90003530002382F83430136D2BB1104698472D
:103CA0000020E0E6012070470020DCE61000024022
:103CB000280002404000024008540258F0B583B08A
:103CC0000446002301937D4B1D687D4BA3FB053506
:103CD000AD0A876D3E68D7F800C0036879497A4815
:103CE000834218BF8B420CBF0120002061D0774A6D
:103CF00093425ED0183293425BD01832934258D030
:103D00001832934255D01832934252D0183293420F
:103D10004FD002F5567293424BD01832934248D09E
:103D20001832934245D01832934242D0183293420F
:103D30003FD0183293423CD01832934239D01832D7
:103D4000934236D06249634A934218BF8B4212D0E5
:103D5000614A93420FD0143293420CD014329342F2
:103D600009D01432934206D01432934203D0143255
:103D7000934240F061821A68E16D01F01F01042056
:103D8000884010EA0C0F00F0A78212F0040F00F038
:103D9000A382786012F4004F00F05A8212F4803F40
:103DA00040F05082A36C002B00F0468220469847DA
:103DB00042E2E26D02F01F0108228A40324241D005
:103DC00070BB424A93422BD01832934228D018320B
:103DD000934225D01832934222D0183293421FD0FA
:103DE000183293421CD002F55672934218D0183202
:103DF000934215D01832934212D0183293420FD00A
:103E0000183293420CD01832934209D018329342A0
:103E100006D01832934203D01A68C2F3C00202E0FF
:103E20001A68C2F380026AB11A6822F004021A60AA
:103E3000E36D03F01F0208239340BB60636D43F002
:103E400001036365E26D02F01F0226FA02F313F02C
:103E5000010F47D023681B481B498B4218BF834280
:103E60003CD018318B4239D018318B4236D01831C2
:103E70008B4233D018318B4230D018318B422DD049
:103E800018318B422AD001F556718B4226D0183159
:103E90008B4223D018318B4220D018318B421DD059
:103EA00018318B421AD018318B4217D018318B42FF
:103EB00014D018318B4211D01B6813E0000000248D
:103EC000B5814E1B10000240280002404000024015
:103ED000085402581C540258305402585B6913F0BD
:103EE000800F3BD1E36D03F01F03042202FA03F3BA
:103EF000334240D02268964896498A4218BF82428F
:103F000035D018318A4232D018318A422FD0183138
:103F10008A422CD018318A4229D018318A4226D0C0
:103F200018318A4223D001F556718A421FD01831C8
:103F30008A421CD018318A4219D018318A4216D0D0
:103F400018318A4213D018318A4210D018318A426F
:103F50000DD018318A420AD013680CE0012303FA0D
:103F600002F2BA60636D43F002036365BAE7126858
:103F700012F0020F3DD1E36D03F01F03102202FA8D
:103F800003F333425FD02268714872498A4218BFF6
:103F9000824234D018318A4231D018318A422ED030
:103FA00018318A422BD018318A4228D018318A42DF
:103FB00025D018318A4222D001F556718A421ED08E
:103FC00018318A421BD018318A4218D018318A42DF
:103FD00015D018318A4212D018318A420FD01831C8
:103FE0008A420CD018318A4209D01268C2F380028A
:103FF00008E0BB60636D43F004036365BBE71268D0
:10400000C2F3C002FAB1BB6023681A6812F4802FB1
:104010000DD01B6813F4002F04D1236C9BB12046F4
:10402000984710E0A36C73B1204698470BE01A68DC
:1040300012F4807F03D11A6822F008021A60236C00
:104040000BB120469847E36D03F01F03202202FACC
:1040500003F3334200F0928022683D483D498A4292
:1040600018BF82422ED018318A422BD018318A4292
:1040700028D018318A4225D018318A4222D01831EE
:104080008A421FD018318A421CD001F556718A42EB
:1040900018D018318A4215D018318A4212D01831FE
:1040A0008A420FD018318A420CD018318A4209D086
:1040B00018318A4206D018318A4203D01268C2F3FE
:1040C000400202E01268C2F30012002A56D0BB6020
:1040D00094F83530DBB2042B0ED023681A6812F442
:1040E000802F39D01B6813F4002F2CD1636C002B68
:1040F00044D02046984741E02268136823F0160315
:1041000013602268536923F080035361236CB3B1B9
:104110002268136823F008031360E36D03F01F02A5
:104120003F239340BB60012384F83530002384F89B
:104130003430236D002B7FD0204698477CE0A36C61
:10414000002BE5D1E9E7E36BC3B12046984715E0C2
:1041500010000240280002401A6812F4807F09D142
:104160001A6822F010021A60012384F83530002307
:1041700084F83430E36B0BB120469847636D002B15
:104180005AD0636D13F0010F52D0042384F83530F8
:1041900023689649964A934218BF8B422FD0183213
:1041A00093422CD01832934229D01832934226D011
:1041B0001832934223D01832934220D018329342BF
:1041C0001DD002F55672934219D01832934216D080
:1041D0001832934213D01832934210D018329342BF
:1041E0000DD0183293420AD01832934207D01832B9
:1041F000934204D01A6822F001021A6003E01A68A0
:1042000022F001021A60019B01330193AB4204D8F2
:1042100023681B6813F0010FF5D123681B6813F0A6
:10422000010F0BD0032384F83530002384F8343099
:10423000E36C0BB12046984703B0F0BD012384F82E
:104240003530F2E7236C002BF6D020469847F3E791
:1042500012F0200F3AD123686449654A934218BF8F
:104260008B422FD0183293422CD01832934229D04F
:104270001832934226D01832934223D018329342F8
:1042800020D0183293421DD002F55672934219D0B5
:104290001832934216D01832934213D018329342F8
:1042A00010D0183293420DD0183293420AD01832EF
:1042B000934207D01832934204D01A6822F00402C5
:1042C0001A6003E01A6822F008021A60236C002BBF
:1042D000B2D020469847AFE70220884010EA0C0F82
:1042E00060D012F0020F5DD0786012F4004F0ED053
:1042F00012F4803F05D1636C002B9DD02046984777
:104300009AE7E36B002B97D02046984794E712F08A
:10431000200F40D123683549354A934218BF8B425C
:104320002FD0183293422CD01832934229D0183211
:10433000934226D01832934223D01832934220D091
:10434000183293421DD002F55672934219D018329A
:10435000934216D01832934213D01832934210D0A1
:10436000183293420DD0183293420AD01832934239
:1043700007D01832934204D01A6822F00A021A6059
:1043800003E01A6822F014021A60012384F8353021
:10439000002384F83430E36B002B3FF44DAF20460C
:1043A000984749E7082000FA01F111EA0C0F3FF4A1
:1043B00043AF12F0080F3FF43FAF1A6822F00E022D
:1043C0001A60E36D03F01F03012202FA03F37B601E
:1043D000626584F83520002384F83430E36C002BC8
:1043E0003FF42AAF2046984726E700BF100002405E
:1043F00028000240406D704770B582B000236EE027
:1044000085685E000324B44025EA0405CC68B44006
:104410002C438460446824EA0C0C4C68C4F30014F8
:104420009C4044EA0C0444606CE0DD08083550F818
:10443000256003F007044FEA840C0F2404FA0CF4FF
:1044400026EA040E0C6904FA0CF444EA0E0440F85F
:1044500025406FE0092400E0002404FA0EF42C4308
:104460000CF1020C6B4D45F82C404FF0B044256820
:10447000D44325EA0206D1F804C01CF4801F01D001
:1044800042EA05064FF0B0452E606D6804EA050665
:10449000D1F804C01CF4001F01D042EA05064FF019
:1044A000B0456E60D5F8845004EA0506D1F804C022
:1044B0001CF4003F01D042EA05064FF0B045C5F8B4
:1044C0008460D5F880502C404E6816F4803F01D0AF
:1044D00042EA05044FF0B042C2F8804001330A6856
:1044E00032FA03F400F093804FF0010C0CFA03FC55
:1044F0001CEA0202F2D04C6804F00304013C012CD7
:104500007FF67EAF4C6804F00304032C0CD0C46823
:104510005D004FF0030C0CFA05FC24EA0C0C8C68CF
:10452000AC4044EA0C04C4604C6804F00304022C60
:104530003FF47BAF04684FEA430E4FF0030C0CFAD4
:104540000EFC24EA0C0C4C6804F0030404FA0EF48C
:1045500044EA0C0404604C6814F4403FBED02E4C76
:10456000D4F8F45045F00205C4F8F450D4F8F440FF
:1045700004F002040194019C4FEA930C0CF1020533
:10458000244C54F8255003F003044FEA840E0F2402
:1045900004FA0EF425EA0405204CA0423FF45CAF77
:1045A00004F58064A04222D004F58064A04220D0AB
:1045B00004F58064A0421ED004F58064A0421CD0A3
:1045C00004F58064A0421AD004F58064A04218D09B
:1045D00004F58064A04216D004F58064A04214D093
:1045E00004F58064A0423FF435AF0A2435E7012486
:1045F00033E7022431E703242FE704242DE70524C1
:104600002BE7062429E7072427E7082425E702B03B
:1046100070BD00BF0004005800440258000002585A
:104620000369194201D001207047002070470AB188
:10463000816170470904816170470000134BDB689A
:1046400013F0040F07D1114BDB6803F0070383421B
:104650001AD00120704710B50C4AD36823F0070325
:104660001843D060FEF7ECFB0446084B5B6813F47C
:10467000005F07D1FEF7E4FB001BB0F57A7FF4D9A9
:10468000012000E0002010BD0020704700480258C3
:10469000002800F0398338B50446036813F0010F91
:1046A00025D0944A136903F03803926A102B15D071
:1046B000182B0FD06368B3F5803F3FD0002B53D148
:1046C0008C4B1A6822F480321A601A6822F4802215
:1046D0001A6038E002F00302022AEBD1854B1B6816
:1046E00013F4003F03D06368002B00F00F832368AE
:1046F00013F0020F00F0A1807E4A1369926A13F052
:1047000038035AD0182B55D0E368002B00F0DE8018
:1047100078490A6822F0190213430B60FEF790FBF8
:104720000546744B1B6813F0040F40F0AD80FEF794
:1047300087FB401B0228F4D90320EEE26D4A136880
:1047400043F48033136063682BB3FEF779FB0546AF
:10475000684B1B6813F4003FC9D1FEF771FB401B87
:104760006428F5D90320D8E2B3F5A02F09D0614B16
:104770001A6822F480321A601A6822F480221A60C1
:10478000E1E75C4B1A6842F480221A601A6842F42E
:1047900080321A60D7E7FEF753FB0546554B1B687E
:1047A00013F4003FA3D0FEF74BFB401B6428F5D960
:1047B0000320B2E212F0030FA6D14E4B1B6813F098
:1047C000040F03D0E368002B00F0A282494A13686B
:1047D00023F01903E1680B431360FEF731FB054634
:1047E000444B1B6813F0040F06D1FEF729FB401B56
:1047F0000228F5D9032090E2FEF73CFB41F20303C7
:10480000984212D82269402A07D03A494B6823F4CB
:104810007C3343EA02334B600FE0364A536823F49B
:104820007C3343F40033536007E0324A536823F08B
:10483000FE43216943EA01635360236813F0100FBC
:1048400000F088802B4A136903F03803926A082B22
:1048500056D0182B50D0E369002B00F0B880254AC1
:10486000136843F080031360FEF7EAFA0546214B14
:104870001B6813F4807F40F08880FEF7E1FA401B4C
:104880000228F4D9032048E2FEF7F4FA41F20303C8
:10489000984212D82269402A07D016494B6823F45F
:1048A0007C3343EA02334B60C7E7124A536823F470
:1048B0007C3343F400335360BFE70E4A536823F060
:1048C000FE43216943EA01635360B6E7094A13686E
:1048D00023F001031360FEF7B3FA0546054B1B688E
:1048E00013F0040FA9D0FEF7ABFA401B0228F5D94C
:1048F000032012E20044025802F00302012AAAD166
:10490000A14B1B6813F4807F03D0E369802B40F038
:104910000182FEF7AFFA41F20303984212D8226AED
:10492000202A07D098494B6823F0F84343EA826372
:104930004B600FE0944A536823F0F84343F0804300
:10494000536007E0904AD36823F07C53216A43EA1E
:104950000163D360236813F0080F60D06369002BF4
:1049600049D0894A536F43F001035367FEF768FA51
:104970000546854B5B6F13F0020F50D1FEF760FACE
:10498000401B0228F5D90320C7E1FEF773FA41F274
:104990000303984212D8226A202A07D07A494B682A
:1049A00023F0F84343EA82634B60D3E7764A5368C7
:1049B00023F0F84343F080435360CBE7724AD36857
:1049C00023F07C53216A43EA0163D360C2E76E4A55
:1049D000136823F080031360FEF732FA05466A4B32
:1049E0001B6813F4807FB5D0FEF72AFA401B02281B
:1049F000F5D9032091E1644A536F23F00103536713
:104A0000FEF71EFA0546604B5B6F13F0020F06D0EF
:104A1000FEF716FA401B0228F5D903207DE1236832
:104A200013F0200F29D0A3699BB1574A136843F4B0
:104A300080531360FEF704FA0546534B1B6813F4CA
:104A4000005F1AD1FEF7FCF9401B0228F5D90320BC
:104A500063E14D4A136823F480531360FEF7F0F9C5
:104A60000546494B1B6813F4005F06D0FEF7E8F9D2
:104A7000401B0228F5D903204FE1236813F0040FEF
:104A800021D1636A002B00F047813F4A126902F08E
:104A90003802182A00F0EE80022B79D03A4A1368C7
:104AA00023F080731360FEF7CBF90446364B1B6886
:104AB00013F0007F00F0DC80FEF7C2F9001B022833
:104AC000F4D9032029E1314A136843F48073136059
:104AD000FEF7B6F905462D4B1B6813F4807F06D10F
:104AE000FEF7AEF9401B6428F5D9032015E1A36851
:104AF000012B0AD00BBB244B1A6F22F001021A675C
:104B00001A6F22F004021A6704E01F4A136F43F081
:104B100001031367A36833B3FEF792F905461A4BF6
:104B20001B6F13F0020FACD1FEF78AF9401B41F264
:104B300088339842F3D90320EFE0052B09D0124BBC
:104B40001A6F22F001021A671A6F22F004021A6724
:104B5000E0E70D4B1A6F42F004021A671A6F42F039
:104B600001021A67D6E7FEF76BF90546064B1B6F85
:104B700013F0020F85D0FEF763F9401B41F2883332
:104B80009842F3D90320C8E0004402580048025874
:104B9000694A136823F080731360FEF751F90546E4
:104BA000654B1B6813F0007F06D0FEF749F9401BE8
:104BB0000228F5D90320B0E05F4B996A5F4A0A40AA
:104BC000A16AE06A41EA00110A439A62226B013A43
:104BD000C2F30802616B0139490289B20A43A16B31
:104BE0000139090401F4FE010A43E16B01390906A8
:104BF00001F0FE410A431A63DA6A22F00102DA6226
:104C0000596B4F4A0A40A16C42EAC1025A63DA6A00
:104C100022F00C02216C0A43DA62DA6A22F0020204
:104C2000616C0A43DA62DA6A42F48032DA62DA6A82
:104C300042F40032DA62DA6A42F48022DA62DA6A34
:104C400042F00102DA621A6842F080721A60FEF7DE
:104C5000F7F80446384B1B6813F0007F06D1FEF7C7
:104C6000EFF8001B0228F5D9032056E0002054E09D
:104C7000002052E0304A916A106B012B4ED001F0B7
:104C80000303A26A93424BD1C1F30511E36A99422F
:104C900048D1C0F30802236B013B9A4244D1C0F3D0
:104CA0004622636B013B9A4240D1C0F30642A36B9C
:104CB000013B9A423CD1C0F30660E36B013B984252
:104CC00038D11D4B5B6BC3F3CC03A26C9A4201D16C
:104CD000002022E0184AD36A23F00103D362FEF7D2
:104CE000AFF80546FEF7ACF8A842FBD0124A516B6C
:104CF000134B0B40A16C43EAC1035363D36A43F0E7
:104D00000103D362002008E001207047012004E085
:104D1000012002E0012000E0002038BD0120FCE776
:104D20000120FAE70120F8E70120F6E70120F4E787
:104D30000120F2E70120F0E7004402580CFCFFFFDD
:104D40000700FFFFF8B57E4B1B6903F03803102BFB
:104D500000F0F280182B10D013B17A4C2046F8BD29
:104D6000774B1B6813F0200F00F0E880744B186835
:104D7000C0F3C100744CC440F0E7714B9D6A05F06C
:104D800003059C6AC4F30514D86A00F001005B6B4C
:104D9000C3F3CC0303FB00F0FBF786FF0646002CB1
:104DA000DCD0012D76D0022D00F0A4800DB320467A
:104DB000FBF77AFF01466548FCF782F80446604B32
:104DC000186BC0F30800FBF76FFF05464FF0645106
:104DD0003046FBF7C1FF01462846FBF7B5FE4FF012
:104DE0007E51FBF7B1FE01462046FBF7B5FF0446B6
:104DF00071E0534B1B6813F0200F29D0504F3B68D4
:104E0000C3F3C1035048D840FBF74EFF0546204688
:104E1000FBF74AFF01462846FCF752F80446386B78
:104E2000C0F30800FBF740FF05464FF064513046E1
:104E3000FBF792FF01462846FBF786FE4FF07E51B6
:104E4000FBF782FE01462046FBF786FF044642E060
:104E50002046FBF729FF01463D48FCF731F80446A0
:104E6000374B186BC0F30800FBF71EFF05464FF0E9
:104E700064513046FBF770FF01462846FBF764FE9D
:104E80004FF07E51FBF760FE01462046FBF764FFC2
:104E9000044620E02046FBF707FF01462B48FCF7BD
:104EA0000FF80446264B186BC0F30800FBF7FCFE16
:104EB00005464FF064513046FBF74EFF0146284649
:104EC000FBF742FE4FF07E51FBF73EFE01462046C7
:104ED000FBF742FF04461A4B1B6BC3F34623581CD7
:104EE000FBF7E2FE01462046FBF7EAFFFCF784F8F9
:104EF000044633E72046FBF7D7FE01461548FBF78B
:104F0000DFFF04460E4B186BC0F30800FBF7CCFE26
:104F100005464FF064513046FBF71EFF0146284618
:104F2000FBF712FE4FF07E51FBF70EFE01462046C6
:104F3000FBF712FF0446CEE7074C0FE7024C0DE7E4
:104F40000044025800093D000090D0030024744A38
:104F50000024744C20BCBE4B40787D01002800F03A
:104F6000328170B50D4604469B4B1B6803F00F035E
:104F70008B420BD2984A136823F00F030B43136044
:104F8000136803F00F038B4240F01F81236813F076
:104F9000040F0CD02269914B9B6903F070039A4275
:104FA00005D98E498B6923F070031A438A612368FF
:104FB00013F0080F0CD06269884BDB6903F07003B3
:104FC0009A4205D98549CB6923F070031A43CA6117
:104FD000236813F0100F0CD0A269804BDB6903F437
:104FE000E0639A4205D97D49CB6923F4E0631A4313
:104FF000CA61236813F0200F0CD0E269774B1B6A5B
:1050000003F070039A4205D974490B6A23F07003C8
:105010001A430A62236813F0020F0CD0E2686F4B48
:105020009B6903F00F039A4205D96C498B6923F001
:105030000F031A438A61236813F0010F41D0674AB6
:10504000936923F47063A1680B4393616368022B37
:105050000AD0032B27D0012B2CD0604A126812F003
:10506000040F06D10120ADE0126812F4003F00F0F9
:10507000AE805A490A6922F0070213430B61FDF71B
:10508000DFFE0646554B1B6903F038036268B3EB3D
:10509000C20F16D0FDF7D4FE801B41F28833984230
:1050A000F0D903208EE04D4A126812F0007FE0D163
:1050B000012087E0494A126812F4807FD9D101208B
:1050C00080E0236813F0020F0CD0E268434B9B6929
:1050D00003F00F039A4205D240498B6923F00F0376
:1050E0001A438A613C4B1B6803F00F03AB420AD999
:1050F000394A136823F00F032B431360136803F03E
:105100000F03AB4265D1236813F0040F0CD0226962
:10511000324B9B6903F070039A4205D22F498B6989
:1051200023F070031A438A61236813F0080F0CD030
:1051300062692A4BDB6903F070039A4205D2274962
:10514000CB6923F070031A43CA61236813F0100F70
:105150000CD0A269214BDB6903F4E0639A4205D2CB
:105160001E49CB6923F4E0631A43CA61236813F034
:10517000200F0CD0E269194B1B6A03F070039A42AE
:1051800005D216490B6A23F070031A430A62FFF72F
:10519000D9FD12498B69C3F30323114AD35C03F091
:1051A0001F03D8408B6903F00F03D35C03F01F0388
:1051B00020FA03F30B4A13600B4B18600B4B186873
:1051C000FDF7DCFD70BD012070470120FAE70120EA
:1051D000F8E70120F6E700BF002000520044025823
:1051E000ACEA000804000024000000240C000024A5
:1051F00008B5FFF7A7FD0B4A9369C3F303230A49D8
:10520000CB5C03F01F0320FA03F3926902F00F0254
:10521000885C00F01F0023FA00F0044A1060044A82
:10522000136008BD00440258ACEA000804000024E2
:105230000000002408B5FFF7DBFF054BDB69C3F373
:105240000213044AD35C03F01F03D84008BD00BF1B
:1052500000440258ACEA000808B5FFF7C9FF054B47
:10526000DB69C3F30223044AD35C03F01F03D84075
:1052700008BD00BF00440258ACEA0008404B9B6ADE
:1052800003F00303032B79D070B505460E463C4A64
:10529000136823F080631360FDF7D2FD0446384B9A
:1052A0001B6813F0006F06D0FDF7CAFD031B022B2D
:1052B000F5D9032070BD324B9A6A22F47C322968FA
:1052C00042EA01329A626A68013AC2F30802A968A6
:1052D0000139490289B20A43E9680139090401F434
:1052E000FE010A4329690139090601F0FE410A431A
:1052F0009A63DA6A22F0C00269690A43DA62DA6AFA
:1053000022F02002A9690A43DA62DA6A22F0100266
:10531000DA62D96B1B4A0A40E96942EAC102DA63E0
:10532000DA6A42F01002DA62C6B91A46DB6A43F45E
:105330000023D362124A136843F080631360FDF7C1
:105340007FFD04460E4B1B6813F0006F14D1FDF770
:1053500077FD001B0228F5D90320ABE7012E05D00D
:10536000074AD36A43F40013D362E3E7044AD36ADB
:1053700043F48013D362DDE700209BE701207047F0
:10538000004402580700FFFF404B9B6A03F00303F1
:10539000032B79D070B505460E463C4A136823F0BE
:1053A00080531360FDF74CFD0446384B1B6813F027
:1053B000005F06D0FDF744FD031B022BF5D9032047
:1053C00070BD324B9A6A22F07C72296842EA01521F
:1053D0009A626A68013AC2F30802A968013949026F
:1053E00089B20A43E9680139090401F4FE010A435C
:1053F00029690139090601F0FE410A431A64DA6A93
:1054000022F4406269690A43DA62DA6A22F40072BD
:10541000A9690A43DA62DA6A22F48072DA62596CA4
:105420001B4A0A40E96942EAC1025A64DA6A42F454
:105430008072DA62C6B91A46DB6A43F48003D3622B
:10544000124A136843F080531360FDF7F9FC0446D9
:105450000E4B1B6813F0005F14D1FDF7F1FC001B2D
:105460000228F5D90320ABE7012E05D0074AD36AFD
:1054700043F08073D362E3E7044AD36A43F4000342
:10548000D362DDE700209BE701207047004402580B
:105490000700FFFFF8B50446036813F0006F30D033
:1054A000836EB3F5001F26D00ED8EBB1B3F5801F85
:1054B00007D102210830FFF7E1FE054645B12E462F
:1054C00021E0012635461EE0B3F5401F09D1002535
:1054D000984A136D23F44013A16E0B431365002605
:1054E00011E0012635460EE0924AD36A43F40033B8
:1054F000D3620025ECE702212830FFF745FF05467F
:10550000DCE700263546236813F4807F14D0A36DB2
:10551000042B32D8DFE803F003232A080800854A69
:10552000D36A43F40033D36255BB824A136D23F030
:105530000703A16D0B431365236813F4007F31D07B
:10554000E36D802B4CD020D8002B43D0402B19D1B9
:10555000002104F10800FFF791FE05461AE0002142
:1055600004F10800FFF78AFE0546DDE7002104F19B
:105570002800FFF709FF0546D6E701263546DBE799
:105580002E46D9E7012635460CE0C02B02D0B3F5F4
:10559000807F1CD15DBB674A136D23F4E073E16D1E
:1055A0000B431365236813F4806F46D0D4F8A830FA
:1055B000B3F5800F39D01FD88BB3B3F5001F18D1C6
:1055C000002104F10800FFF759FE05461AE0012604
:1055D0003546E7E7574AD36A43F40033D362D9E745
:1055E000002104F12800FFF7CFFE0546D2E72E4642
:1055F000D8E70126354620E0B3F5C00F02D0B3F559
:10560000000F09D1C5B94B4A936D23F46003D4F858
:10561000A8100B43936510E0012635460DE0454A7E
:10562000D36A43F40033D362ECE7002104F128008D
:10563000FFF7AAFE0546E5E72E46236813F4006F40
:1056400024D0D4F8AC30B3F1007F42D00ED8002B78
:1056500039D0B3F1807F06D1002104F10800FFF7B3
:105660000DFE054608E0012635460FE0B3F1407F08
:1056700002D0B3F1806F23D1002D31D12D4A936D2B
:1056800023F0E063D4F8AC100B439365236813F068
:10569000007F2ED0E36C202B40D026D833B1102BC6
:1056A00020D1244AD36A43F40033D362002D3CD185
:1056B000204AD36C23F03003E16C0B43D36418E031
:1056C00001263546E2E71B4AD36A43F40033D3622E
:1056D000D2E7002104F12800FFF756FE0546CBE78C
:1056E0002E46D3E70126354603E0302BDED00126D7
:1056F0003546236813F4805F2DD0236EB3F5005F29
:105700004FD019D8002B46D0B3F5805F0FD10021C0
:1057100004F10800FFF7B2FD054613E0022104F191
:105720000800FFF7ABFD0546C0E72E46E1E701267E
:10573000354610E000440258B3F5405F02D0B3F59F
:10574000804F25D1002D33D1774A136D23F4E043E8
:10575000216E0B431365236813F4005F38D0636E2A
:10576000B3F5003F53D028D843B1B3F5803F21D1E2
:10577000012104F10800FFF781FD0546002D4DD100
:10578000694A136D23F4E023616E0B4313651FE038
:1057900001263546DFE7644AD36A43F40033D36217
:1057A000D0E7002104F12800FFF7EEFD0546C9E728
:1057B0002E46D0E7012635460AE0B3F5802FDDD02E
:1057C000B3F5A02FDAD0B3F5403FD7D00126354648
:1057D000236813F4804F31D0D4F8B030B3F1005FB8
:1057E00045D020D843B1B3F1805F19D1012104F134
:1057F0000800FFF743FD0546002D3FD14A4A936D4F
:1058000023F0E043D4F8B0100B43936516E0012178
:1058100004F12800FFF7B8FD0546AFE72E46D7E7AD
:10582000012635460AE0B3F1804FE5D0B3F1A04F31
:10583000E2D0B3F1405FDFD001263546236813F490
:10584000004F09D0236FB3F1805F19D0B3F1005F2F
:1058500024D0D3B101263546236813F0807F33D09E
:10586000A36C032B5BD8DFE803F027225327012129
:1058700004F12800FFF788FD0546BDE72E46DDE769
:10588000294AD36A43F40033D36275B9264A136DAB
:1058900023F04053216F0B431365DDE7012104F131
:1058A0000800FFF7EBFC0546EFE72E46D4E71E4A5B
:1058B000D36A43F40033D362A5BB1B4AD36C23F0F5
:1058C0000303A16C0B43D364236813F4800F2DD121
:1058D000236813F0010F00F0A580E36F282B00F27E
:1058E0009F80DFE803F08D9D9D9D9D9D9D9D879DE3
:1058F0009D9D9D9D9D9D969D9D9D9D9D9D9D8D9DEF
:105900009D9D9D9D9D9D8D9D9D9D9D9D9D9D8D0084
:10591000022104F10800FFF7B1FC0546CCE701269F
:105920003546D1E72E46CFE700440258914A136826
:1059300043F480731360FDF783FA07468D4B1B68B1
:1059400013F4807F05D1FDF77BFAC01B6428F5D9DD
:105950000325002D4AD1884B1B6FD4F8B420534047
:1059600013F4407F0CD0844B1A6F22F44072196FED
:1059700041F480311967196F21F4803119671A6772
:10598000D4F8B430B3F5807F15D08DBBD4F8B430E3
:1059900003F44072B2F5407F1ED0774A136923F4B6
:1059A0007C53136174490B6FD4F8B420C2F30B021B
:1059B00013430B678CE7FDF743FA07466E4B1B6FEB
:1059C00013F0020FE1D1FDF73BFAC01B41F288331F
:1059D0009842F3D90325D8E76748026922F47C523C
:1059E000664901EA131313430361DBE72E466FE7B1
:1059F0002E466DE7012104F10800FFF73FFC054644
:105A0000E5B95D4A536D23F03803E16F0B435365ED
:105A100008E0012104F12800FFF7B6FC0546EFE796
:105A200001263546236813F0020F17D0A36F052B0C
:105A300028D8DFE803F00B05200B0B0B2E46F1E70F
:105A4000012104F10800FFF719FC0546EDB94A4AA7
:105A5000536D23F00703A16F0B435365236813F0C5
:105A6000040F23D0D4F89430052B45D8DFE803F099
:105A7000150F3D151515012104F12800FFF784FCD1
:105A80000546E3E701263546E8E72E46E6E701212D
:105A900004F10800FFF7F2FB054685BB364A936D1B
:105AA00023F00703D4F894100B439365236813F095
:105AB000200F34D0D4F89030B3F1005F4ED023D80B
:105AC00043B1B3F1805F1CD1002104F10800FFF75E
:105AD000D5FB0546002D48D1274A536D23F0E043FE
:105AE000D4F890100B43536519E0012104F128000C
:105AF000FFF74AFC0546D0E701263546D6E72E4695
